:100000000C944F000C9466000C9466000C946600EF
:100010000C9466000C9466000C9466000C946600C8
:100020000C9466000C9466000C9466000C946600B8
:100030000C9466000C9466000C9466000C946600A8
:100040000C9466000C9466000C9466000C94660098
:100050000C9466000C9466000C9466000C94660088
:100060000C9466000C9466000C9466000C94660078
:100070000C9466000C9466000C9466000C94660068
:100080000C9466000C9466000C946600D100D600B7
:10009000DC00E200E800EE00F400FA0000011124A8
:1000A0001FBECFEFD0E4DEBFCDBF11E0A0E0B1E0D6
:1000B000ECEBF2E000E00BBF02C007900D92A03124
:1000C000B107D9F70E942F010C945C010C94000039
:1000D000CF93DF9300D01F92CDB7DEB789837B83A8
:1000E0006A8389818A3031F48A819B81BC018DE0E9
:1000F0000E94680080EC90E0FC018081882F90E0F5
:1001000080729927892BB1F386EC90E02981FC015C
:10011000208380E090E00F900F900F90DF91CF91BF
:100120000895CF93DF93CDB7DEB78AE790E02AE753
:1001300030E0F9012081206EFC0120830000DF9176
:10014000CF910895CF93DF9300D000D01F92CDB709
:10015000DEB788E790E0FC01808191819D838C83EC
:1001600019821B821A826AC02C813D818A819B81FF
:100170008217930708F451C08981882F90E0092ED7
:10018000000CAA0BBB0B40E050E028E030E0841BE1
:10019000950B28173907D0F18A5B9F4FFC010C940F
:1001A000530185E290E0FC01108236C085E290E0C8
:1001B00021E0FC01208330C085E290E023E0FC01D7
:1001C00020832AC085E290E027E0FC01208324C040
:1001D00085E290E02FE0FC0120831EC085E290E0E4
:1001E0002FE1FC01208318C085E290E02FE3FC01A1
:1001F000208312C085E290E02FE7FC0120830CC031
:1002000085E290E02FEFFC01208306C085E290E0BC
:100210002981FC012083000019C089818F5F8983B7
:100220008FE391E096958795969587959695879516
:100230002A813B81820F931F9B838A838FE391E006
:100240002A813B812817390708F48ECF00000F90D0
:100250000F900F900F900F90DF91CF910895CF9353
:10026000DF93CDB7DEB781E290E0FC01108282E23D
:1002700090E02FEFFC01208384E290E02FEFFC015F
:10028000208385E290E0FC0110828AE290E02FEF6B
:10029000FC0120838BE290E0FC0110820E9491001F
:1002A0000E94A200FDCFEE0FFF1F0024001C0BBE1A
:0C02B0000790F691E02D0994F894FFCF20
:1002BC0000000002000000006800000000003F0188
:00000001FF
